S010000073646B5F323032362E73726563A9
S11300000C9434000C9448000C9446000C94460064
S11300100C9446000C9446000C9446000C94460044
S11300200C9446000C9446000C9446000C94BA00C0
S11300300C9446000C9446000C9446000C94460024
S11300400C949D000C9446000C9446000C944600BD
S11300500C9446000C9446000C9446000C94460004
S11300600C9446000C94460011241FBECFEFD8E038
S1130070DEBFCDBF21E0A0E0B1E001C01D92A13000
S1130080B207E1F70E948B000C94E8000C94000086
S11300901F920F920FB60F9211242F933F934F93F9
S11300A05F936F937F938F939F93AF93BF93EF93DC
S11300B0FF930E947500FF91EF91BF91AF919F91C3
S11300C08F917F916F915F914F913F912F910F90FD
S11300D00FBE0F901F901895E9E6F0E080818160D3
S11300E080838DB381608DBB089520E030E00FC024
S11300F095B180E2892785B94FEF81EE94E04150B4
S113010080409040E1F700C000002F5F3F4F243152
S1130110310574F308950E9493000E946C000E94BC
S1130120CC007894FFCF84B1806284B98AB18B7F8C
S11301308AB98BB184608BB908951F920F920FB660
S11301400F9211248F939F93809100018F5F80936E
S11301500001809100018D3730F095B180E289274C
S113016085B9109200019F918F910F900FBE0F904F
S11301701F9018951F920F920FB60F9211248F9310
S11301809F9395B180E2892785B99F918F910F90B4
S11301900FBE0F901F901895E1E8F0E08081886011
S11301A08083A8E8B0E08D919C9111978F639F6143
S11301B011969C938E938081816080831092850038
S11301C010928400EFE6F0E08081826080830895DD
S10701D0F894FFCFCD
S9030000FC
