S010000073646B5F323032362E73726563A9
S11300000C9434000C9477000C9451000C9451001F
S11300100C9451000C9451000C9451000C94510018
S11300200C9451000C9451000C9451000C94D9017F
S11300300C9451000C9451000C9451000C945100F8
S11300400C94BC010C9451000C9451000C9451007C
S11300500C9451000C9451000C9451000C945300D6
S11300600C9451000C94510011241FBECFEFD8E022
S1130070DEBFCDBF11E0A0E0B1E0EAEDF3E002C0E5
S113008005900D92AA30B107D9F721E0AAE0B1E0BA
S113009001C01D92AB30B207E1F70E94A7010C9496
S11300A0EB010C9400001F920F920FB60F921124D3
S11300B02F933F934F935F936F937F938F939F936C
S11300C0AF93BF93EF93FF930E949101FF91EF9140
S11300D0BF91AF919F918F917F916F915F914F915C
S11300E03F912F910F900FBE0F901F9018951F9264
S11300F00F920FB60F9211242F933F934F935F9358
S11301006F937F938F939F93AF93BF93EF93FF93DB
S11301100E949101FF91EF91BF91AF919F918F91B7
S11301207F916F915F914F913F912F910F900FBEEF
S11301300F901F901895E9E6F0E08081816080833C
S11301408DB381608DBB08951092B90084E18093D2
S1130150B80084E08093BC00089584EA8093BC00D6
S11301608091BC008823E4F7089584E98093BC005F
S11301708FE99FE00197F1F700C000000895809394
S1130180BB0084EC8093BC008091BC008823E4F71E
S113019008950E94AD0080E70E94BF008FEF0E9487
S11301A0BF002FEF89EF90E0215080409040E1F7AD
S11301B000C0000084E30E94BF0080E30E94BF00EF
S11301C08FE39CE90197F1F700C0000084E30E94EB
S11301D0BF0080E30E94BF008FE99FE00197F1F721
S11301E000C0000084E30E94BF0080E30E94BF00BF
S11301F08FE99FE00197F1F700C0000084E20E94BC
S1130200BF0080E20E94BF008FE99FE00197F1F7F1
S113021000C000000E94B5000895CF93DF93C82F5B
S11302200E94AD0080E70E94BF00DC2FD07F8D2F9D
S11302308C600E94BF008D2F88600E94BF0080E107
S1130240C89FE00111248C2F8C600E94BF008C2F6A
S11302500E94BF000E94B5008FE39FE10197F1F770
S113026000C000008FE39FE10197F1F700C0000098
S1130270DF91CF9108950E94A4000E94C9008CE2EE
S11302800E940D018CE00E940D0186E00E940D0188
S113029080E80E940D010895CF93DF93C82F0E9438
S11302A0AD0080E70E94BF00DC2FD07F8D2F8D60D2
S11302B00E94BF008D2F89600E94BF0080E1C89F0B
S11302C0E00111248C2F8D600E94BF008C2F896067
S11302D00E94BF000E94B5008FE39FE10197F1F7F0
S11302E000C000008FE39FE10197F1F700C0000018
S11302F0DF91CF9108950F931F93CF93DF938C01D8
S1130300C0E0D0E003C00E944C012196F801EC0F3C
S1130310FD1F80818111F7CFDF91CF911F910F9144
S1130320089520E030E00FC095B180E2892785B9B7
S11303304FEF81EE94E0415080409040E1F700C0DF
S113034000002F5F3F4F2431310574F308950E945C
S1130350B3010E949B000E943B0180E091E00E9457
S11303607B017894FFCF8AB18B7F8AB98BB184608B
S11303708BB98FEF84B908951F920F920FB60F9225
S113038011248F939F9380910A018F5F80930A01B8
S113039080910A018D3730F095B180E2892785B9C3
S11303A010920A019F918F910F900FBE0F901F9092
S11303B018951F920F920FB60F9211248F939F934B
S11303C095B180E2892785B99F918F910F900FBED7
S10D03D00F901F901895F894FFCFCA
S10D03DA6170726F6261646F73005A
S903015AA1
