S010000073646B5F323032362E73726563A9
S11300000C9434000C947E000C9451000C94510018
S11300100C9451000C9451000C9451000C94510018
S11300200C9451000C9451000C9451000C949001C8
S11300300C9451000C9451000C9451000C945100F8
S11300400C9473010C9451000C9451000C945100C5
S11300500C9451000C9451000C9451000C945300D6
S11300600C9451000C94510011241FBECFEFD8E022
S1130070DEBFCDBF11E0A0E0B1E0E8E4F3E002C0F0
S113008005900D92AE30B107D9F721E0AEE0B1E0B2
S113009001C01D92AF30B207E1F70E9458010C94E1
S11300A0A2010C9400001F920F920FB60F9211241C
S11300B02F933F934F935F936F937F938F939F936C
S11300C0AF93BF93EF93FF930E944201FF91EF918F
S11300D0BF91AF919F918F917F916F915F914F915C
S11300E03F912F910F900FBE0F901F90189580B7DE
S11300F0836080BF80B7886080BF08951F920F928D
S11301000FB60F9211242F933F934F935F936F93E6
S11301107F938F939F93AF93BF93EF93FF930E942B
S11301204201FF91EF91BF91AF919F918F917F9188
S11301306F915F914F913F912F910F900FBE0F9050
S11301401F901895E9E6F0E08081816080838DB38B
S113015081608DBB08958FEF85B92FEF89EF90E013
S1130160215080409040E1F700C0000094E395B92D
S113017080E385B9EFE3FCE93197F1F700C00000B3
S113018095B985B9EFE9FFE03197F1F700C00000B8
S113019095B985B98FE99FE00197F1F700C0000098
S11301A084E285B980E285B9EFE9FFE03197F1F7A0
S11301B000C000000895982F907F292F246025B94E
S11301C095B920E1829FC0011124982F946095B9BC
S11301D085B98FE39FE10197F1F700C000008FE339
S11301E09FE10197F1F700C0000008950E94AB0061
S11301F08CE20E94DB008CE00E94DB0086E00E941F
S1130200DB0080E80E94DB000895982F907F292F5F
S1130210256025B9916095B920E1829FC001112420
S1130220982F956095B9816085B98FE39FE1019717
S1130230F1F700C000008FE39FE10197F1F700C0E0
S113024000000895E62FF0E0E150FF4F9081890F00
S113025081580E94DB0008950F931F93CF93DF937F
S11302608C01C0E0D0E003C00E9405012196F80192
S1130270EC0FFD1F80818111F7CFDF91CF911F918A
S11302800F91089520E030E00FC095B180E28927F6
S113029085B94FEF81EE94E0415080409040E1F702
S11302A000C000002F5F3F4F2431310574F30895DF
S11302B00E946A010E94A2000E9477000E94F60038
S11302C061E085E00E94220182E091E00E942C011D
S11302D07894FFCF8AB18B7F8AB98BB184608BB954
S11302E08FEF84B908951F920F920FB60F921124C5
S11302F08F939F9380910E018F5F80930E01809165
S11303000E018D3730F095B180E2892785B91092BE
S11303100E019F918F910F900FBE0F901F90189513
S11303201F920F920FB60F9211248F939F9395B142
S113033080E2892785B99F918F910F900FBE0F900E
S10B03401F901895F894FFCFFB
S11103480040726570726F6261646F73000032
S9030000FC
