S010000073646B5F323032362E73726563A9
S11300000C9434000C9448000C9446000C94460064
S11300100C9446000C9446000C9446000C94460044
S11300200C9446000C9446000C9446000C94E0009A
S11300300C9446000C9446000C9446000C94460024
S11300400C94C3000C9446000C9446000C94460097
S11300500C9446000C9446000C9446000C94460004
S11300600C9446000C94460011241FBECFEFD8E038
S1130070DEBFCDBF21E0A0E0B1E001C01D92A13000
S1130080B207E1F70E949A000C94F2000C9400006D
S11300901F920F920FB60F9211242F933F934F93F9
S11300A05F936F937F938F939F93AF93BF93EF93DC
S11300B0FF930E948400FF91EF91BF91AF919F91B4
S11300C08F917F916F915F914F913F912F910F90FD
S11300D00FBE0F901F901895E9E6F0E080818160D3
S11300E080838DB381608DBB7894089595B180E24F
S11300F0892785B92FEF89E698E121508040904007
S1130100E1F700C00000089520E030E00FC095B191
S113011080E2892785B94FEF81EE94E04150804019
S11301209040E1F700C000002F5F3F4F24313105BC
S113013074F308950E94A3000E946C000E94AD0015
S11301400E947600FDCF84B1806284B98AB18B7F2E
S11301508AB98BB184608BB9089585B5816085BDFA
S113016016BC20E030E086B5883CE8F32F5F3F4FB3
S1130170203A310534F095B180E2892785B920E031
S113018030E016BCF0CF1F920F920FB60F921124DD
S11301908F939F93809100018F5F809300018091E2
S11301A000018D3730F095B180E2892785B910922E
S11301B000019F918F910F900FBE0F901F90189583
S11301C01F920F920FB60F9211248F939F9395B1A4
S11301D080E2892785B99F918F910F900FBE0F9070
S10B01E01F901895F894FFCF5D
S9030000FC
