S010000073646B5F323032362E73726563A9
S11300000C9434000C9440000C943E000C943E007C
S11300100C943E000C943E000C943E000C943E0064
S11300200C943E000C943E000C943E000C943E0054
S11300300C943E000C943E000C943E000C943E0044
S11300400C943E000C943E000C943E000C943E0034
S11300500C943E000C943E000C943E000C943E0024
S11300600C943E000C943E0011241FBECFEFD8E048
S1130070DEBFCDBF0E9492000C94A2000C9400003D
S11300801F920F920FB60F9211242F933F934F9309
S11300905F936F937F938F939F93AF93BF93EF93EC
S11300A0FF930E947C00FF91EF91BF91AF919F91CC
S11300B08F917F916F915F914F913F912F910F900D
S11300C00FBE0F901F901895E9E6F0E080818160E3
S11300D080838DB381608DBB7894089595B180E25F
S11300E0892785B92FEF89E698E121508040904017
S11300F0E1F700C00000089520E030E00FC095B1A2
S113010080E2892785B94FEF81EE94E04150804029
S11301109040E1F700C000002F5F3F4F24313105CC
S113012074F308950E9499000E9464000E946E0076
S1130130FDCF84B1806284B98AB11AB88BB184606E
S10B01408BB90895F894FFCF78
S9030000FC
