S010000073646B5F323032362E73726563A9
S11300000C9434000C9473000C9446000C94460039
S11300100C9446000C9446000C9446000C94460044
S11300200C9446000C9446000C9446000C94EF008B
S11300300C9446000C9446000C9446000C94460024
S11300400C94D2000C9446000C9446000C94460088
S11300500C9446000C9446000C9446000C94480002
S11300600C9446000C94460011241FBECFEFD8E038
S1130070DEBFCDBF21E0A0E0B1E001C01D92A13000
S1130080B207E1F70E94B6000C9431010C94000011
S11300901F920F920FB60F9211242F933F934F93F9
S11300A05F936F937F938F939F93AF93BF93EF93DC
S11300B0FF930E94A000FF91EF91BF91AF919F9198
S11300C08F917F916F915F914F913F912F910F90FD
S11300D00FBE0F901F90189580B7836080BF80B7C4
S11300E0886080BF08951F920F920FB60F9211245B
S11300F02F933F934F935F936F937F938F939F932C
S1130100AF93BF93EF93FF930E94A000FF91EF91F1
S1130110BF91AF919F918F917F916F915F914F911B
S11301203F912F910F900FBE0F901F901895E9E605
S1130130F0E08081816080838DB381608DBB089500
S113014020E030E00FC095B180E2892785B94FEFF8
S113015081EE94E0415080409040E1F700C00000FF
S11301602F5F3F4F2431310574F308950E94C2007C
S11301700E9497000E9401010E9420010E946C00CD
S11301807894FFCF84B1806284B984B1826084B9E9
S113019084B1886084B98AB18B7F8AB98BB1846059
S11301A08BB908951F920F920FB60F9211248F935B
S11301B09F93809100018F5F8093000180910001E3
S11301C08D3730F095B180E2892785B9109200010E
S11301D09F918F910F900FBE0F901F9018951F92B3
S11301E00F920FB60F9211248F939F9395B180E2D3
S11301F0892785B99F918F910F900FBE0F901F9003
S11302001895E0E8F0E08081806C808380818260D2
S11302108083E1E8F0E0808188618083808182606E
S11302208083E6E8F0E08FE39CE99183808380811A
S11302309181805A9F40909389008093880008950B
S1130240E0EBF0E08081816080838081806880833E
S1130250E1EBF0E080818360808383E38093B300EB
S10902600895F894FFCF9D
S9030000FC
