S010000073646B5F323032362E73726563A9
S11300000C9434000C9477000C9451000C9451001F
S11300100C9451000C9451000C9451000C94510018
S11300200C9451000C9451000C9451000C944B010D
S11300300C9451000C9451000C9451000C945100F8
S11300400C942E010C9451000C9451000C9451000A
S11300500C9451000C9451000C9451000C945300D6
S11300600C9451000C94510011241FBECFEFD8E022
S1130070DEBFCDBF11E0A0E0B1E0EEEBF2E002C0E4
S113008005900D92AA30B107D9F721E0AAE0B1E0BA
S113009001C01D92AB30B207E1F70E941B010C9422
S11300A05D010C9400001F920F920FB60F92112461
S11300B02F933F934F935F936F937F938F939F936C
S11300C0AF93BF93EF93FF930E940501FF91EF91CC
S11300D0BF91AF919F918F917F916F915F914F915C
S11300E03F912F910F900FBE0F901F9018951F9264
S11300F00F920FB60F9211242F933F934F935F9358
S11301006F937F938F939F93AF93BF93EF93FF93DB
S11301100E940501FF91EF91BF91AF919F918F9143
S11301207F916F915F914F913F912F910F900FBEEF
S11301300F901F901895E9E6F0E08081816080833C
S11301408DB381608DBB089584EA8093BC00809157
S1130150BC008823E4F7089584E98093BC008FE908
S11301609FE00197F1F700C0000008958093BB0061
S113017084EC8093BC008091BC008823E4F708954C
S1130180CF93DF93C82F0E94A40080E70E94B6009B
S1130190DC2FD07F8D2F8D600E94B6008D2F89605B
S11301A00E94B60080E1C89FE00111248C2F8D606D
S11301B00E94B6008C2F89600E94B6000E94AC0099
S11301C08FE39FE10197F1F700C000008FE39FE107
S11301D00197F1F700C00000DF91CF9108950F93CC
S11301E01F93CF93DF938C01C0E0D0E003C00E9443
S11301F0C0002196F801EC0FFD1F80818111F7CF1B
S1130200DF91CF911F910F91089520E030E00FC04E
S113021095B180E2892785B94FEF81EE94E0415092
S113022080409040E1F700C000002F5F3F4F243131
S1130230310574F308950E9425010E949B0080E01B
S113024091E00E94EF007894FFCF8AB18B7F8AB946
S11302508BB184608BB98FEF84B908951F920F928C
S11302600FB60F9211248F939F9380910A018F5F91
S113027080930A0180910A018D3730F095B180E2B4
S1130280892785B910920A019F918F910F900FBE13
S11302900F901F9018951F920F920FB60F92112472
S11302A08F939F9395B180E2892785B99F918F9110
S11102B00F900FBE0F901F901895F894FFCF7B
S10D02BE6170726F6261646F730077
S9030148B3
