S010000073646B5F323032362E73726563A9
S11300000C9434000C943E000C943E000C943E007E
S11300100C943E000C943E000C943E000C943E0064
S11300200C943E000C943E000C943E000C943E0054
S11300300C943E000C943E000C943E000C943E0044
S11300400C943E000C943E000C943E000C943E0034
S11300500C943E000C943E000C943E000C943E0024
S11300600C943E000C943E0011241FBECFEFD8E048
S1130070DEBFCDBF0E944E000C9457000C940000CC
S113008095B180E2892785B92FEF83EC99E021505F
S113009080409040E1F700C0000008950E945300A2
S11300A00E944000FDCF84B1806284B90895F89421
S10500B0FFCF7C
S9030000FC
